{
  "contractName": "kittyMarketplace",
  "abi": [
    {
      "inputs": [
        {
          "internalType": "address",
          "name": "_kittyContractAddress",
          "type": "address"
        }
      ],
      "stateMutability": "nonpayable",
      "type": "constructor"
    },
    {
      "anonymous": false,
      "inputs": [
        {
          "indexed": false,
          "internalType": "string",
          "name": "TxType",
          "type": "string"
        },
        {
          "indexed": false,
          "internalType": "address",
          "name": "owner",
          "type": "address"
        },
        {
          "indexed": false,
          "internalType": "uint256",
          "name": "tokenId",
          "type": "uint256"
        }
      ],
      "name": "MarketTransaction",
      "type": "event"
    },
    {
      "inputs": [
        {
          "internalType": "address",
          "name": "_kittyContractAddress",
          "type": "address"
        }
      ],
      "name": "setKittyContract",
      "outputs": [],
      "stateMutability": "nonpayable",
      "type": "function"
    },
    {
      "inputs": [
        {
          "internalType": "uint256",
          "name": "_tokenId",
          "type": "uint256"
        }
      ],
      "name": "getOffer",
      "outputs": [
        {
          "internalType": "address",
          "name": "seller",
          "type": "address"
        },
        {
          "internalType": "uint256",
          "name": "price",
          "type": "uint256"
        },
        {
          "internalType": "uint256",
          "name": "index",
          "type": "uint256"
        },
        {
          "internalType": "uint256",
          "name": "tokenId",
          "type": "uint256"
        },
        {
          "internalType": "bool",
          "name": "active",
          "type": "bool"
        }
      ],
      "stateMutability": "view",
      "type": "function",
      "constant": true
    },
    {
      "inputs": [],
      "name": "getAllTokenOnSale",
      "outputs": [
        {
          "internalType": "uint256[]",
          "name": "listOfOffers",
          "type": "uint256[]"
        }
      ],
      "stateMutability": "view",
      "type": "function",
      "constant": true
    },
    {
      "inputs": [
        {
          "internalType": "uint256",
          "name": "_price",
          "type": "uint256"
        },
        {
          "internalType": "uint256",
          "name": "_tokenId",
          "type": "uint256"
        }
      ],
      "name": "setOffer",
      "outputs": [],
      "stateMutability": "nonpayable",
      "type": "function"
    },
    {
      "inputs": [
        {
          "internalType": "uint256",
          "name": "_tokenId",
          "type": "uint256"
        }
      ],
      "name": "removeOffer",
      "outputs": [],
      "stateMutability": "nonpayable",
      "type": "function"
    },
    {
      "inputs": [
        {
          "internalType": "uint256",
          "name": "_tokenId",
          "type": "uint256"
        }
      ],
      "name": "buyKitty",
      "outputs": [],
      "stateMutability": "payable",
      "type": "function",
      "payable": true
    }
  ],
  "bytecode": "0x60806040523480156200001157600080fd5b5060405162001ab338038062001ab3833981810160405281019062000037919062000181565b62000048816200004f60201b60201c565b5062000236565b736a310df8e4f973dbf995234b68ce75b27c67391473ffffffffffffffffffffffffffffffffffffffff163373ffffffffffffffffffffffffffffffffffffffff1614620000d4576040517f08c379a0000000000000000000000000000000000000000000000000000000008152600401620000cb9062000214565b60405180910390fd5b806000806101000a81548173ffffffffffffffffffffffffffffffffffffffff021916908373ffffffffffffffffffffffffffffffffffffffff16021790555050565b600080fd5b600073ffffffffffffffffffffffffffffffffffffffff82169050919050565b600062000149826200011c565b9050919050565b6200015b816200013c565b81146200016757600080fd5b50565b6000815190506200017b8162000150565b92915050565b6000602082840312156200019a576200019962000117565b5b6000620001aa848285016200016a565b91505092915050565b600082825260208201905092915050565b7f4f776e61626c653a2063616c6c6572206973206e6f7420746865206f776e6572600082015250565b6000620001fc602083620001b3565b91506200020982620001c4565b602082019050919050565b600060208201905081810360008301526200022f81620001ed565b9050919050565b61186d80620002466000396000f3fe6080604052600436106100555760003560e01c80634579268a1461005a57806349b3709f1461009b57806362b7f94e146100c6578063941b055b146100ef57806395a0f9c714610118578063ae5310f614610141575b600080fd5b34801561006657600080fd5b50610081600480360381019061007c9190610e54565b61015d565b604051610092959493929190610eec565b60405180910390f35b3480156100a757600080fd5b506100b0610218565b6040516100bd9190610ffd565b60405180910390f35b3480156100d257600080fd5b506100ed60048036038101906100e8919061104b565b61037c565b005b3480156100fb57600080fd5b5061011660048036038101906101119190611078565b610441565b005b34801561012457600080fd5b5061013f600480360381019061013a9190610e54565b610863565b005b61015b60048036038101906101569190610e54565b610a80565b005b60008060008060006002600087815260200190815260200160002060000160009054906101000a900473ffffffffffffffffffffffffffffffffffffffff1694506002600087815260200190815260200160002060010154935060026000878152602001908152602001600020600201549250600260008781526020019081526020016000206003015491506002600087815260200190815260200160002060040160009054906101000a900460ff16905091939590929450565b6060600060018054905090506000810361027d57600067ffffffffffffffff811115610247576102466110b8565b5b6040519080825280602002602001820160405280156102755781602001602082028036833780820191505090505b509150610377565b60008167ffffffffffffffff811115610299576102986110b8565b5b6040519080825280602002602001820160405280156102c75781602001602082028036833780820191505090505b50905060005b8281101561036c5760011515600182815481106102ed576102ec6110e7565b5b906000526020600020906005020160040160009054906101000a900460ff161515036103595760018181548110610327576103266110e7565b5b90600052602060002090600502016003015482828151811061034c5761034b6110e7565b5b6020026020010181815250505b808061036490611145565b9150506102cd565b508092505050610379565b505b90565b736a310df8e4f973dbf995234b68ce75b27c67391473ffffffffffffffffffffffffffffffffffffffff163373ffffffffffffffffffffffffffffffffffffffff16146103fe576040517f08c379a00000000000000000000000000000000000000000000000000000000081526004016103f5906111ea565b60405180910390fd5b806000806101000a81548173ffffffffffffffffffffffffffffffffffffffff021916908373ffffffffffffffffffffffffffffffffffffffff16021790555050565b3373ffffffffffffffffffffffffffffffffffffffff1660008054906101000a900473ffffffffffffffffffffffffffffffffffffffff1673ffffffffffffffffffffffffffffffffffffffff16636352211e836040518263ffffffff1660e01b81526004016104b1919061120a565b602060405180830381865afa1580156104ce573d6000803e3d6000fd5b505050506040513d601f19601f820116820180604052508101906104f2919061123a565b73ffffffffffffffffffffffffffffffffffffffff1614610548576040517f08c379a000000000000000000000000000000000000000000000000000000000815260040161053f906112d9565b60405180910390fd5b600015156002600083815260200190815260200160002060040160009054906101000a900460ff161515146105b2576040517f08c379a00000000000000000000000000000000000000000000000000000000081526004016105a99061136b565b60405180910390fd5b60008054906101000a900473ffffffffffffffffffffffffffffffffffffffff1673ffffffffffffffffffffffffffffffffffffffff1663e985e9c533306040518363ffffffff1660e01b815260040161060d92919061138b565b602060405180830381865afa15801561062a573d6000803e3d6000fd5b505050506040513d601f19601f8201168201806040525081019061064e91906113e0565b61068d576040517f08c379a00000000000000000000000000000000000000000000000000000000081526004016106849061147f565b60405180910390fd5b60006040518060a001604052803373ffffffffffffffffffffffffffffffffffffffff1681526020018481526020016001805490508152602001838152602001600115158152509050806002600084815260200190815260200160002060008201518160000160006101000a81548173ffffffffffffffffffffffffffffffffffffffff021916908373ffffffffffffffffffffffffffffffffffffffff16021790555060208201518160010155604082015181600201556060820151816003015560808201518160040160006101000a81548160ff021916908315150217905550905050600181908060018154018082558091505060019003906000526020600020906005020160009091909190915060008201518160000160006101000a81548173ffffffffffffffffffffffffffffffffffffffff021916908373ffffffffffffffffffffffffffffffffffffffff16021790555060208201518160010155604082015181600201556060820151816003015560808201518160040160006101000a81548160ff02191690831515021790555050507fd99e4fad9ad6313b1feb588fa8e605e3a9873172f2024330c35dd2b4041a438633836040516108569291906114eb565b60405180910390a1505050565b6000600260008381526020019081526020016000206040518060a00160405290816000820160009054906101000a900473ffffffffffffffffffffffffffffffffffffffff1673ffffffffffffffffffffffffffffffffffffffff1673ffffffffffffffffffffffffffffffffffffffff1681526020016001820154815260200160028201548152602001600382015481526020016004820160009054906101000a900460ff16151515158152505090503373ffffffffffffffffffffffffffffffffffffffff16816000015173ffffffffffffffffffffffffffffffffffffffff1614610986576040517f08c379a000000000000000000000000000000000000000000000000000000000815260040161097d90611599565b60405180910390fd5b60026000838152602001908152602001600020600080820160006101000a81549073ffffffffffffffffffffffffffffffffffffffff02191690556001820160009055600282016000905560038201600090556004820160006101000a81549060ff0219169055505060006001600260008581526020019081526020016000206002015481548110610a1b57610a1a6110e7565b5b906000526020600020906005020160040160006101000a81548160ff0219169083151502179055507fd99e4fad9ad6313b1feb588fa8e605e3a9873172f2024330c35dd2b4041a43863383604051610a74929190611605565b60405180910390a15050565b6000600260008381526020019081526020016000206040518060a00160405290816000820160009054906101000a900473ffffffffffffffffffffffffffffffffffffffff1673ffffffffffffffffffffffffffffffffffffffff1673ffffffffffffffffffffffffffffffffffffffff1681526020016001820154815260200160028201548152602001600382015481526020016004820160009054906101000a900460ff1615151515815250509050600115156002600084815260200190815260200160002060040160009054906101000a900460ff16151514610b9b576040517f08c379a0000000000000000000000000000000000000000000000000000000008152600401610b929061168d565b60405180910390fd5b60026000838152602001908152602001600020600101543414610bf3576040517f08c379a0000000000000000000000000000000000000000000000000000000008152600401610bea906116f9565b60405180910390fd5b3373ffffffffffffffffffffffffffffffffffffffff16816000015173ffffffffffffffffffffffffffffffffffffffff1603610c2f57600080fd5b60026000838152602001908152602001600020600080820160006101000a81549073ffffffffffffffffffffffffffffffffffffffff02191690556001820160009055600282016000905560038201600090556004820160006101000a81549060ff0219169055505060006001600260008581526020019081526020016000206002015481548110610cc457610cc36110e7565b5b906000526020600020906005020160040160006101000a81548160ff021916908315150217905550600081602001511115610d4957806000015173ffffffffffffffffffffffffffffffffffffffff166108fc82602001519081150290604051600060405180830381858888f19350505050158015610d47573d6000803e3d6000fd5b505b60008054906101000a900473ffffffffffffffffffffffffffffffffffffffff1673ffffffffffffffffffffffffffffffffffffffff166323b872dd826000015133856040518463ffffffff1660e01b8152600401610daa93929190611778565b600060405180830381600087803b158015610dc457600080fd5b505af1158015610dd8573d6000803e3d6000fd5b505050507fd99e4fad9ad6313b1feb588fa8e605e3a9873172f2024330c35dd2b4041a43863383604051610e0d9291906117fb565b60405180910390a15050565b600080fd5b6000819050919050565b610e3181610e1e565b8114610e3c57600080fd5b50565b600081359050610e4e81610e28565b92915050565b600060208284031215610e6a57610e69610e19565b5b6000610e7884828501610e3f565b91505092915050565b600073ffffffffffffffffffffffffffffffffffffffff82169050919050565b6000610eac82610e81565b9050919050565b610ebc81610ea1565b82525050565b610ecb81610e1e565b82525050565b60008115159050919050565b610ee681610ed1565b82525050565b600060a082019050610f016000830188610eb3565b610f0e6020830187610ec2565b610f1b6040830186610ec2565b610f286060830185610ec2565b610f356080830184610edd565b9695505050505050565b600081519050919050565b600082825260208201905092915050565b6000819050602082019050919050565b610f7481610e1e565b82525050565b6000610f868383610f6b565b60208301905092915050565b6000602082019050919050565b6000610faa82610f3f565b610fb48185610f4a565b9350610fbf83610f5b565b8060005b83811015610ff0578151610fd78882610f7a565b9750610fe283610f92565b925050600181019050610fc3565b5085935050505092915050565b600060208201905081810360008301526110178184610f9f565b905092915050565b61102881610ea1565b811461103357600080fd5b50565b6000813590506110458161101f565b92915050565b60006020828403121561106157611060610e19565b5b600061106f84828501611036565b91505092915050565b6000806040838503121561108f5761108e610e19565b5b600061109d85828601610e3f565b92505060206110ae85828601610e3f565b9150509250929050565b7f4e487b7100000000000000000000000000000000000000000000000000000000600052604160045260246000fd5b7f4e487b7100000000000000000000000000000000000000000000000000000000600052603260045260246000fd5b7f4e487b7100000000000000000000000000000000000000000000000000000000600052601160045260246000fd5b600061115082610e1e565b91507fffffffffffffffffffffffffffffffffffffffffffffffffffffffffffffffff820361118257611181611116565b5b600182019050919050565b600082825260208201905092915050565b7f4f776e61626c653a2063616c6c6572206973206e6f7420746865206f776e6572600082015250565b60006111d460208361118d565b91506111df8261119e565b602082019050919050565b60006020820190508181036000830152611203816111c7565b9050919050565b600060208201905061121f6000830184610ec2565b92915050565b6000815190506112348161101f565b92915050565b6000602082840312156112505761124f610e19565b5b600061125e84828501611225565b91505092915050565b7f596f7520617265206e6f7420746865206f776e6572206f662074686174206b6960008201527f7474790000000000000000000000000000000000000000000000000000000000602082015250565b60006112c360238361118d565b91506112ce82611267565b604082019050919050565b600060208201905081810360008301526112f2816112b6565b9050919050565b7f596f752063616e6e6f742073656c6c207468652073616d65206b69747479207460008201527f7769636500000000000000000000000000000000000000000000000000000000602082015250565b600061135560248361118d565b9150611360826112f9565b604082019050919050565b6000602082019050818103600083015261138481611348565b9050919050565b60006040820190506113a06000830185610eb3565b6113ad6020830184610eb3565b9392505050565b6113bd81610ed1565b81146113c857600080fd5b50565b6000815190506113da816113b4565b92915050565b6000602082840312156113f6576113f5610e19565b5b6000611404848285016113cb565b91505092915050565b7f54686973206f70657261746f72206973206e6f7420617070726f76656420746f60008201527f2073656c6c000000000000000000000000000000000000000000000000000000602082015250565b600061146960258361118d565b91506114748261140d565b604082019050919050565b600060208201905081810360008301526114988161145c565b9050919050565b7f437265617465206f666665720000000000000000000000000000000000000000600082015250565b60006114d5600c8361118d565b91506114e08261149f565b602082019050919050565b60006060820190508181036000830152611504816114c8565b90506115136020830185610eb3565b6115206040830184610ec2565b9392505050565b7f596f7520617265206e6f74207468652073656c6c6572206f662074686174206b60008201527f6974747900000000000000000000000000000000000000000000000000000000602082015250565b600061158360248361118d565b915061158e82611527565b604082019050919050565b600060208201905081810360008301526115b281611576565b9050919050565b7f52656d6f7665206f666665720000000000000000000000000000000000000000600082015250565b60006115ef600c8361118d565b91506115fa826115b9565b602082019050919050565b6000606082019050818103600083015261161e816115e2565b905061162d6020830185610eb3565b61163a6040830184610ec2565b9392505050565b7f4e6f20616374697665206f726465722070726573656e74000000000000000000600082015250565b600061167760178361118d565b915061168282611641565b602082019050919050565b600060208201905081810360008301526116a68161166a565b9050919050565b7f507269636520697320696e636f72726563740000000000000000000000000000600082015250565b60006116e360128361118d565b91506116ee826116ad565b602082019050919050565b60006020820190508181036000830152611712816116d6565b9050919050565b6000819050919050565b600061173e61173961173484610e81565b611719565b610e81565b9050919050565b600061175082611723565b9050919050565b600061176282611745565b9050919050565b61177281611757565b82525050565b600060608201905061178d6000830186611769565b61179a6020830185610eb3565b6117a76040830184610ec2565b949350505050565b7f4275790000000000000000000000000000000000000000000000000000000000600082015250565b60006117e560038361118d565b91506117f0826117af565b602082019050919050565b60006060820190508181036000830152611814816117d8565b90506118236020830185610eb3565b6118306040830184610ec2565b939250505056fea264697066735822122041de37fbba31d9e9798e565843b7850da2860b5d86ea318ae81ed3771f71ef8664736f6c634300080e0033",
  "immutableReferences": {},
  "source": "pragma solidity ^0.8.0;\n\nimport \"./kittyContract.sol\";\nimport \"./ownable.sol\";\n\n\ncontract kittyMarketplace is Ownable {\n\n    kittyContract private _kittyContract;\n\n    struct Offer{\n        address payable seller;\n        uint256 price;\n        uint256 index;\n        uint256 tokenId;\n        bool active;\n    }\n\n    Offer[] offers;\n    event MarketTransaction(string TxType, address owner, uint256 tokenId);\n\n    mapping(uint256 => Offer) tokenIdToOffer;\n\n    function setKittyContract(address _kittyContractAddress) onlyOwner public {\n        _kittyContract = kittyContract(_kittyContractAddress);\n    }\n\n    constructor(address _kittyContractAddress)  {\n        setKittyContract(_kittyContractAddress);\n    }\n\n    function getOffer(uint256 _tokenId) external view returns ( address seller, uint256 price, uint256 index, uint256 tokenId, bool active){\n        seller = tokenIdToOffer[_tokenId].seller;\n        price = tokenIdToOffer[_tokenId].price;\n        index = tokenIdToOffer[_tokenId].index;\n        tokenId = tokenIdToOffer[_tokenId].tokenId;\n        active = tokenIdToOffer[_tokenId].active;\n    }\n\n    function getAllTokenOnSale() external view  returns(uint256[] memory listOfOffers){\n        uint256 totalOffers = offers.length;\n\n        if(totalOffers == 0){\n            listOfOffers = new uint256[](0);\n        } else {\n            uint256[] memory result = new uint256[](totalOffers);\n            for (uint i = 0; i < totalOffers; i++){\n                if(offers[i].active == true){\n                    result[i] = offers[i].tokenId;\n                }\n            }\n            return result;\n        }\n        \n    }\n    \n    function setOffer(uint256 _price, uint256 _tokenId) external{\n        require(_kittyContract.ownerOf( _tokenId) == msg.sender, \"You are not the owner of that kitty\");\n        require(tokenIdToOffer[_tokenId].active == false, \"You cannot sell the same kitty twice\");\n        require(_kittyContract.isApprovedForAll(msg.sender, address(this)), \"This operator is not approved to sell\");\n        Offer memory _offer = Offer({seller: payable (msg.sender), price: _price, index: offers.length, tokenId: _tokenId, active: true});\n\n        tokenIdToOffer[_tokenId] = _offer;\n        offers.push(_offer);\n\n        emit MarketTransaction(\"Create offer\", msg.sender, _tokenId);\n    }\n\n\n    function removeOffer(uint256 _tokenId) external{\n        Offer memory offer = tokenIdToOffer[_tokenId];\n        require(offer.seller == msg.sender, \"You are not the seller of that kitty\");\n        delete tokenIdToOffer[_tokenId];\n        offers[tokenIdToOffer[_tokenId].index].active = false;\n\n        emit MarketTransaction(\"Remove offer\", msg.sender, _tokenId);\n    }\n\n    \n\n    function buyKitty(uint256 _tokenId) external payable{\n        Offer memory offer = tokenIdToOffer[_tokenId];\n        require(tokenIdToOffer[_tokenId].active == true, \"No active order present\");\n        require(msg.value == tokenIdToOffer[_tokenId].price, \"Price is incorrect\");\n        require(offer.seller != msg.sender);\n\n        delete tokenIdToOffer[_tokenId];\n        offers[tokenIdToOffer[_tokenId].index].active = false;\n\n        if(offer.price > 0){\n            offer.seller.transfer(offer.price);\n        }\n\n        _kittyContract.transferFrom(offer.seller, msg.sender, _tokenId);\n\n        emit MarketTransaction(\"Buy\", msg.sender, _tokenId);\n    }\n\n}",
  "sourcePath": "/Users/markkrasner/kitties/academy-kitties-template/contracts/kittyMarketplace.sol",
  "compiler": {
    "name": "solc",
    "version": "0.8.14+commit.80d49f37.Emscripten.clang"
  },
  "schemaVersion": "3.4.7",
  "updatedAt": "2022-05-22T19:36:53.286Z",
  "networkType": "ethereum",
  "devdoc": {
    "kind": "dev",
    "methods": {},
    "version": 1
  },
  "userdoc": {
    "kind": "user",
    "methods": {},
    "version": 1
  }
}