{
  "contractName": "kittyContract",
  "abi": [
    {
      "inputs": [],
      "stateMutability": "nonpayable",
      "type": "constructor"
    },
    {
      "anonymous": false,
      "inputs": [
        {
          "indexed": true,
          "internalType": "address",
          "name": "owner",
          "type": "address"
        },
        {
          "indexed": true,
          "internalType": "address",
          "name": "approved",
          "type": "address"
        },
        {
          "indexed": true,
          "internalType": "uint256",
          "name": "tokenId",
          "type": "uint256"
        }
      ],
      "name": "Approval",
      "type": "event"
    },
    {
      "anonymous": false,
      "inputs": [
        {
          "indexed": true,
          "internalType": "address",
          "name": "owner",
          "type": "address"
        },
        {
          "indexed": true,
          "internalType": "address",
          "name": "operator",
          "type": "address"
        },
        {
          "indexed": false,
          "internalType": "bool",
          "name": "approved",
          "type": "bool"
        }
      ],
      "name": "ApprovalForAll",
      "type": "event"
    },
    {
      "anonymous": false,
      "inputs": [
        {
          "indexed": false,
          "internalType": "address",
          "name": "owner",
          "type": "address"
        },
        {
          "indexed": false,
          "internalType": "uint256",
          "name": "kittenId",
          "type": "uint256"
        },
        {
          "indexed": false,
          "internalType": "uint256",
          "name": "mId",
          "type": "uint256"
        },
        {
          "indexed": false,
          "internalType": "uint256",
          "name": "dId",
          "type": "uint256"
        },
        {
          "indexed": false,
          "internalType": "uint256",
          "name": "genes",
          "type": "uint256"
        }
      ],
      "name": "Birth",
      "type": "event"
    },
    {
      "anonymous": false,
      "inputs": [
        {
          "indexed": true,
          "internalType": "address",
          "name": "from",
          "type": "address"
        },
        {
          "indexed": true,
          "internalType": "address",
          "name": "to",
          "type": "address"
        },
        {
          "indexed": true,
          "internalType": "uint256",
          "name": "tokenId",
          "type": "uint256"
        }
      ],
      "name": "Transfer",
      "type": "event"
    },
    {
      "inputs": [],
      "name": "CREATION_LIMIT_GEN0",
      "outputs": [
        {
          "internalType": "uint256",
          "name": "",
          "type": "uint256"
        }
      ],
      "stateMutability": "view",
      "type": "function",
      "constant": true
    },
    {
      "inputs": [],
      "name": "gen0Counter",
      "outputs": [
        {
          "internalType": "uint256",
          "name": "",
          "type": "uint256"
        }
      ],
      "stateMutability": "view",
      "type": "function",
      "constant": true
    },
    {
      "inputs": [
        {
          "internalType": "uint256",
          "name": "",
          "type": "uint256"
        }
      ],
      "name": "kittyIndexToOwner",
      "outputs": [
        {
          "internalType": "address",
          "name": "",
          "type": "address"
        }
      ],
      "stateMutability": "view",
      "type": "function",
      "constant": true
    },
    {
      "inputs": [],
      "name": "nameK",
      "outputs": [
        {
          "internalType": "string",
          "name": "",
          "type": "string"
        }
      ],
      "stateMutability": "view",
      "type": "function",
      "constant": true
    },
    {
      "inputs": [],
      "name": "symbolK",
      "outputs": [
        {
          "internalType": "string",
          "name": "",
          "type": "string"
        }
      ],
      "stateMutability": "view",
      "type": "function",
      "constant": true
    },
    {
      "inputs": [
        {
          "internalType": "bytes4",
          "name": "_interfaceId",
          "type": "bytes4"
        }
      ],
      "name": "supportsInterface",
      "outputs": [
        {
          "internalType": "bool",
          "name": "",
          "type": "bool"
        }
      ],
      "stateMutability": "view",
      "type": "function",
      "constant": true
    },
    {
      "inputs": [],
      "name": "getZero",
      "outputs": [
        {
          "internalType": "address",
          "name": "",
          "type": "address"
        }
      ],
      "stateMutability": "view",
      "type": "function",
      "constant": true
    },
    {
      "inputs": [],
      "name": "getContractAddress",
      "outputs": [
        {
          "internalType": "address",
          "name": "",
          "type": "address"
        }
      ],
      "stateMutability": "view",
      "type": "function",
      "constant": true
    },
    {
      "inputs": [
        {
          "internalType": "uint256",
          "name": "_genes",
          "type": "uint256"
        }
      ],
      "name": "createKittyGenZero",
      "outputs": [
        {
          "internalType": "uint256",
          "name": "",
          "type": "uint256"
        }
      ],
      "stateMutability": "nonpayable",
      "type": "function"
    },
    {
      "inputs": [
        {
          "internalType": "uint256",
          "name": "kId",
          "type": "uint256"
        }
      ],
      "name": "getKitty",
      "outputs": [
        {
          "internalType": "uint256",
          "name": "genes",
          "type": "uint256"
        },
        {
          "internalType": "uint256",
          "name": "birthTime",
          "type": "uint256"
        },
        {
          "internalType": "uint256",
          "name": "mumId",
          "type": "uint256"
        },
        {
          "internalType": "uint256",
          "name": "dadId",
          "type": "uint256"
        },
        {
          "internalType": "uint256",
          "name": "generation",
          "type": "uint256"
        },
        {
          "internalType": "address",
          "name": "owner",
          "type": "address"
        }
      ],
      "stateMutability": "view",
      "type": "function",
      "constant": true
    },
    {
      "inputs": [
        {
          "internalType": "address",
          "name": "owner",
          "type": "address"
        }
      ],
      "name": "balanceOf",
      "outputs": [
        {
          "internalType": "uint256",
          "name": "balance",
          "type": "uint256"
        }
      ],
      "stateMutability": "view",
      "type": "function",
      "constant": true
    },
    {
      "inputs": [],
      "name": "totalSupply",
      "outputs": [
        {
          "internalType": "uint256",
          "name": "total",
          "type": "uint256"
        }
      ],
      "stateMutability": "view",
      "type": "function",
      "constant": true
    },
    {
      "inputs": [],
      "name": "name",
      "outputs": [
        {
          "internalType": "string",
          "name": "tokenName",
          "type": "string"
        }
      ],
      "stateMutability": "view",
      "type": "function",
      "constant": true
    },
    {
      "inputs": [],
      "name": "symbol",
      "outputs": [
        {
          "internalType": "string",
          "name": "tokenSymbol",
          "type": "string"
        }
      ],
      "stateMutability": "view",
      "type": "function",
      "constant": true
    },
    {
      "inputs": [
        {
          "internalType": "uint256",
          "name": "tokenId",
          "type": "uint256"
        }
      ],
      "name": "ownerOf",
      "outputs": [
        {
          "internalType": "address",
          "name": "owner",
          "type": "address"
        }
      ],
      "stateMutability": "view",
      "type": "function",
      "constant": true
    },
    {
      "inputs": [
        {
          "internalType": "address",
          "name": "_to",
          "type": "address"
        },
        {
          "internalType": "uint256",
          "name": "_tokenId",
          "type": "uint256"
        }
      ],
      "name": "transfer",
      "outputs": [],
      "stateMutability": "nonpayable",
      "type": "function"
    },
    {
      "inputs": [
        {
          "internalType": "address",
          "name": "_approved",
          "type": "address"
        },
        {
          "internalType": "uint256",
          "name": "_tokenId",
          "type": "uint256"
        }
      ],
      "name": "approve",
      "outputs": [],
      "stateMutability": "nonpayable",
      "type": "function"
    },
    {
      "inputs": [
        {
          "internalType": "address",
          "name": "_operator",
          "type": "address"
        },
        {
          "internalType": "bool",
          "name": "_approved",
          "type": "bool"
        }
      ],
      "name": "setApprovalForAll",
      "outputs": [],
      "stateMutability": "nonpayable",
      "type": "function"
    },
    {
      "inputs": [
        {
          "internalType": "uint256",
          "name": "_tokenId",
          "type": "uint256"
        }
      ],
      "name": "getApproved",
      "outputs": [
        {
          "internalType": "address",
          "name": "",
          "type": "address"
        }
      ],
      "stateMutability": "view",
      "type": "function",
      "constant": true
    },
    {
      "inputs": [
        {
          "internalType": "address",
          "name": "_owner",
          "type": "address"
        },
        {
          "internalType": "address",
          "name": "_operator",
          "type": "address"
        }
      ],
      "name": "isApprovedForAll",
      "outputs": [
        {
          "internalType": "bool",
          "name": "",
          "type": "bool"
        }
      ],
      "stateMutability": "view",
      "type": "function",
      "constant": true
    },
    {
      "inputs": [
        {
          "internalType": "address",
          "name": "_from",
          "type": "address"
        },
        {
          "internalType": "address",
          "name": "_to",
          "type": "address"
        },
        {
          "internalType": "uint256",
          "name": "_tokenId",
          "type": "uint256"
        }
      ],
      "name": "transferFrom",
      "outputs": [],
      "stateMutability": "nonpayable",
      "type": "function"
    },
    {
      "inputs": [
        {
          "internalType": "address",
          "name": "_from",
          "type": "address"
        },
        {
          "internalType": "address",
          "name": "_to",
          "type": "address"
        },
        {
          "internalType": "uint256",
          "name": "_tokenId",
          "type": "uint256"
        }
      ],
      "name": "safeTransferFrom",
      "outputs": [],
      "stateMutability": "nonpayable",
      "type": "function"
    },
    {
      "inputs": [
        {
          "internalType": "address",
          "name": "_from",
          "type": "address"
        },
        {
          "internalType": "address",
          "name": "_to",
          "type": "address"
        },
        {
          "internalType": "uint256",
          "name": "_tokenId",
          "type": "uint256"
        },
        {
          "internalType": "bytes",
          "name": "data",
          "type": "bytes"
        }
      ],
      "name": "safeTransferFrom",
      "outputs": [],
      "stateMutability": "nonpayable",
      "type": "function"
    },
    {
      "inputs": [
        {
          "internalType": "uint256",
          "name": "_cat1",
          "type": "uint256"
        },
        {
          "internalType": "uint256",
          "name": "_cat2",
          "type": "uint256"
        }
      ],
      "name": "breedKitty",
      "outputs": [],
      "stateMutability": "nonpayable",
      "type": "function"
    }
  ],
  "bytecode": "0x608060405260006005553480156200001657600080fd5b506200002f60008060008060006200003660201b60201c565b506200053d565b6000806040518060a001604052808581526020014267ffffffffffffffff1681526020018863ffffffff1681526020018763ffffffff1681526020018661ffff16815250905060008190806001815401808255809150506001900390600052602060002090600202016000909190919091506000820151816000015560208201518160010160006101000a81548167ffffffffffffffff021916908367ffffffffffffffff16021790555060408201518160010160086101000a81548163ffffffff021916908363ffffffff160217905550606082015181600101600c6101000a81548163ffffffff021916908363ffffffff16021790555060808201518160010160106101000a81548161ffff021916908361ffff1602179055505050600060016000805490506200016a9190620003d4565b90507f0a5311bd2a6608f08a180df2ee7c5946819a649b204b554bb8e39825b2c50ad584828a8a89604051620001a595949392919062000465565b60405180910390a1620001c160008583620001cf60201b60201c565b809250505095945050505050565b600260008373ffffffffffffffffffffffffffffffffffffffff1673ffffffffffffffffffffffffffffffffffffffff16815260200190815260200160002060008154809291906200022190620004c2565b9190505550816001600083815260200190815260200160002060006101000a81548173ffffffffffffffffffffffffffffffffffffffff021916908373ffffffffffffffffffffffffffffffffffffffff160217905550600073ffffffffffffffffffffffffffffffffffffffff168373ffffffffffffffffffffffffffffffffffffffff16146200033b57600260008473ffffffffffffffffffffffffffffffffffffffff1673ffffffffffffffffffffffffffffffffffffffff1681526020019081526020016000206000815480929190620002ff906200050f565b91905055506003600082815260200190815260200160002060006101000a81549073ffffffffffffffffffffffffffffffffffffffff02191690555b808273ffffffffffffffffffffffffffffffffffffffff168473ffffffffffffffffffffffffffffffffffffffff167fddf252ad1be2c89b69c2b068fc378daa952ba7f163c4a11628f55a4df523b3ef60405160405180910390a4505050565b6000819050919050565b7f4e487b7100000000000000000000000000000000000000000000000000000000600052601160045260246000fd5b6000620003e1826200039b565b9150620003ee836200039b565b925082821015620004045762000403620003a5565b5b828203905092915050565b600073ffffffffffffffffffffffffffffffffffffffff82169050919050565b60006200043c826200040f565b9050919050565b6200044e816200042f565b82525050565b6200045f816200039b565b82525050565b600060a0820190506200047c600083018862000443565b6200048b602083018762000454565b6200049a604083018662000454565b620004a9606083018562000454565b620004b8608083018462000454565b9695505050505050565b6000620004cf826200039b565b91507fffffffffffffffffffffffffffffffffffffffffffffffffffffffffffffffff8203620005045762000503620003a5565b5b600182019050919050565b60006200051c826200039b565b915060008203620005325762000531620003a5565b5b600182039050919050565b61260e806200054d6000396000f3fe608060405234801561001057600080fd5b50600436106101585760003560e01c806395d89b41116100c3578063b48343301161007c578063b4834330146103c7578063b88d4fde146103e5578063d001acaf14610401578063e985e9c514610431578063e98b7f4d14610461578063ef5e94aa1461049657610158565b806395d89b41146103075780639f3f89dc14610325578063a22cb46514610343578063a45f4bfc1461035f578063a9059cbb1461038f578063b043d19c146103ab57610158565b8063227cc26511610115578063227cc2651461023357806323b872dd1461025157806332a2c5d01461026d57806342842e0e1461028b5780636352211e146102a757806370a08231146102d757610158565b806301ffc9a71461015d57806306fdde031461018d578063081812fc146101ab578063095ea7b3146101db578063138c1f9f146101f757806318160ddd14610215575b600080fd5b61017760048036038101906101729190611c20565b6104b4565b6040516101849190611c68565b60405180910390f35b610195610554565b6040516101a29190611d1c565b60405180910390f35b6101c560048036038101906101c09190611d74565b610591565b6040516101d29190611de2565b60405180910390f35b6101f560048036038101906101f09190611e29565b6105de565b005b6101ff61065a565b60405161020c9190611d1c565b60405180910390f35b61021d610693565b60405161022a9190611e78565b60405180910390f35b61023b61069f565b6040516102489190611d1c565b60405180910390f35b61026b60048036038101906102669190611e93565b6106d8565b005b610275610853565b6040516102829190611de2565b60405180910390f35b6102a560048036038101906102a09190611e93565b61085b565b005b6102c160048036038101906102bc9190611d74565b61087b565b6040516102ce9190611de2565b60405180910390f35b6102f160048036038101906102ec9190611ee6565b6108b8565b6040516102fe9190611e78565b60405180910390f35b61030f610901565b60405161031c9190611d1c565b60405180910390f35b61032d61093e565b60405161033a9190611de2565b60405180910390f35b61035d60048036038101906103589190611f3f565b610943565b005b61037960048036038101906103749190611d74565b610a78565b6040516103869190611de2565b60405180910390f35b6103a960048036038101906103a49190611e29565b610aab565b005b6103c560048036038101906103c09190611f7f565b610b3e565b005b6103cf610c83565b6040516103dc9190611e78565b60405180910390f35b6103ff60048036038101906103fa91906120f4565b610c89565b005b61041b60048036038101906104169190611d74565b610cb0565b6040516104289190611e78565b60405180910390f35b61044b60048036038101906104469190612177565b610cf0565b6040516104589190611c68565b60405180910390f35b61047b60048036038101906104769190611d74565b610d84565b60405161048d969594939291906121b7565b60405180910390f35b61049e610ef0565b6040516104ab9190611e78565b60405180910390f35b60006380ac58cd60e01b7bffffffffffffffffffffffffffffffffffffffffffffffffffffffff1916827bffffffffffffffffffffffffffffffffffffffffffffffffffffffff1916148061054d57506301ffc9a760e01b7bffffffffffffffffffffffffffffffffffffffffffffffffffffffff1916827bffffffffffffffffffffffffffffffffffffffffffffffffffffffff1916145b9050919050565b60606040518060400160405280600b81526020017f4d61726b4b697474696573000000000000000000000000000000000000000000815250905090565b6000808054905082106105a357600080fd5b6003600083815260200190815260200160002060009054906101000a900473ffffffffffffffffffffffffffffffffffffffff169050919050565b6105e83382610ef6565b6105f157600080fd5b6105fb8282610f62565b808273ffffffffffffffffffffffffffffffffffffffff163373ffffffffffffffffffffffffffffffffffffffff167f8c5be1e5ebec7d5bd14f71427d1e84f3dd0314c0f7b2291e5b200ac8c7c3b92560405160405180910390a45050565b6040518060400160405280600b81526020017f4d61726b4b69747469657300000000000000000000000000000000000000000081525081565b60008080549050905090565b6040518060400160405280600381526020017f4d4b53000000000000000000000000000000000000000000000000000000000081525081565b600115156106e68483610ef6565b1515146106f257600080fd5b600115156107008383610fb8565b1515148061071b5750600115156107178433610cf0565b1515145b8061078457503373ffffffffffffffffffffffffffffffffffffffff166001600083815260200190815260200160002060009054906101000a900473ffffffffffffffffffffffffffffffffffffffff1673ffffffffffffffffffffffffffffffffffffffff16145b61078d57600080fd5b600073ffffffffffffffffffffffffffffffffffffffff168273ffffffffffffffffffffffffffffffffffffffff161415801561082957506001600082815260200190815260200160002060009054906101000a900473ffffffffffffffffffffffffffffffffffffffff1673ffffffffffffffffffffffffffffffffffffffff168273ffffffffffffffffffffffffffffffffffffffff1614155b61083257600080fd5b600080549050811061084357600080fd5b61084e838383611024565b505050565b600030905090565b61087683838360405180602001604052806000815250610c89565b505050565b60006001600083815260200190815260200160002060009054906101000a900473ffffffffffffffffffffffffffffffffffffffff169050919050565b6000600260008373ffffffffffffffffffffffffffffffffffffffff1673ffffffffffffffffffffffffffffffffffffffff168152602001908152602001600020549050919050565b60606040518060400160405280600381526020017f4d4b530000000000000000000000000000000000000000000000000000000000815250905090565b600090565b3373ffffffffffffffffffffffffffffffffffffffff168273ffffffffffffffffffffffffffffffffffffffff160361097b57600080fd5b80600460003373ffffffffffffffffffffffffffffffffffffffff1673ffffffffffffffffffffffffffffffffffffffff16815260200190815260200160002060008473ffffffffffffffffffffffffffffffffffffffff1673ffffffffffffffffffffffffffffffffffffffff16815260200190815260200160002060006101000a81548160ff0219169083151502179055508173ffffffffffffffffffffffffffffffffffffffff163373ffffffffffffffffffffffffffffffffffffffff167f17307eab39ab6107e8899845ad3d59bd9653f200f220920489ca2b5937696c3183604051610a6c9190611c68565b60405180910390a35050565b60016020528060005260406000206000915054906101000a900473ffffffffffffffffffffffffffffffffffffffff1681565b600073ffffffffffffffffffffffffffffffffffffffff168273ffffffffffffffffffffffffffffffffffffffff1603610ae457600080fd5b3073ffffffffffffffffffffffffffffffffffffffff168273ffffffffffffffffffffffffffffffffffffffff1603610b1c57600080fd5b610b263382610ef6565b610b2f57600080fd5b610b3a338383611024565b5050565b3373ffffffffffffffffffffffffffffffffffffffff166001600084815260200190815260200160002060009054906101000a900473ffffffffffffffffffffffffffffffffffffffff1673ffffffffffffffffffffffffffffffffffffffff16148015610c0a57503373ffffffffffffffffffffffffffffffffffffffff166001600083815260200190815260200160002060009054906101000a900473ffffffffffffffffffffffffffffffffffffffff1673ffffffffffffffffffffffffffffffffffffffff16145b610c1357600080fd5b808203610c1f57600080fd5b6000808381548110610c3457610c33612218565b5b90600052602060002090600202016000015490506000808381548110610c5d57610c5c612218565b5b9060005260206000209060020201600001549050610c7d828286866111eb565b50505050565b6103e881565b610c9533858585611382565b610c9e57600080fd5b610caa8484848461143b565b50505050565b60006103e860055410610cc257600080fd5b60056000815480929190610cd590612276565b9190505550610ce960008060008533611461565b9050919050565b6000600460008473ffffffffffffffffffffffffffffffffffffffff1673ffffffffffffffffffffffffffffffffffffffff16815260200190815260200160002060008373ffffffffffffffffffffffffffffffffffffffff1673ffffffffffffffffffffffffffffffffffffffff16815260200190815260200160002060009054906101000a900460ff16905092915050565b60008060008060008060008781548110610da157610da0612218565b5b906000526020600020906002020160010160009054906101000a900467ffffffffffffffff1667ffffffffffffffff16945060008781548110610de757610de6612218565b5b906000526020600020906002020160010160089054906101000a900463ffffffff1663ffffffff16935060008781548110610e2557610e24612218565b5b9060005260206000209060020201600101600c9054906101000a900463ffffffff1663ffffffff16925060008781548110610e6357610e62612218565b5b906000526020600020906002020160010160109054906101000a900461ffff1661ffff1691506001600088815260200190815260200160002060009054906101000a900473ffffffffffffffffffffffffffffffffffffffff16905060008781548110610ed357610ed2612218565b5b906000526020600020906002020160000154955091939550919395565b60055481565b60008273ffffffffffffffffffffffffffffffffffffffff166001600084815260200190815260200160002060009054906101000a900473ffffffffffffffffffffffffffffffffffffffff1673ffffffffffffffffffffffffffffffffffffffff1614905092915050565b816003600083815260200190815260200160002060006101000a81548173ffffffffffffffffffffffffffffffffffffffff021916908373ffffffffffffffffffffffffffffffffffffffff1602179055505050565b60008273ffffffffffffffffffffffffffffffffffffffff166003600084815260200190815260200160002060009054906101000a900473ffffffffffffffffffffffffffffffffffffffff1673ffffffffffffffffffffffffffffffffffffffff1614905092915050565b600260008373ffffffffffffffffffffffffffffffffffffffff1673ffffffffffffffffffffffffffffffffffffffff168152602001908152602001600020600081548092919061107490612276565b9190505550816001600083815260200190815260200160002060006101000a81548173ffffffffffffffffffffffffffffffffffffffff021916908373ffffffffffffffffffffffffffffffffffffffff160217905550600073ffffffffffffffffffffffffffffffffffffffff168373ffffffffffffffffffffffffffffffffffffffff161461118b57600260008473ffffffffffffffffffffffffffffffffffffffff1673ffffffffffffffffffffffffffffffffffffffff168152602001908152602001600020600081548092919061114f906122be565b91905055506003600082815260200190815260200160002060006101000a81549073ffffffffffffffffffffffffffffffffffffffff02191690555b808273ffffffffffffffffffffffffffffffffffffffff168473ffffffffffffffffffffffffffffffffffffffff167fddf252ad1be2c89b69c2b068fc378daa952ba7f163c4a11628f55a4df523b3ef60405160405180910390a4505050565b600660006111f99190611b76565b600760006112079190611b76565b600960006112159190611b76565b600083905060008590505b600660078054905010156112c7576000600a8361123d9190612316565b90506000600a8361124e9190612316565b9050600a8461125d9190612347565b9350600a8361126c9190612347565b9250600682908060018154018082558091505060019003906000526020600020016000909190919091505560078190806001815401808255809150506001900390600052602060002001600090919091909150555050611220565b5b600d600780549050101561136f5760006064836112e59190612316565b905060006064836112f69190612316565b90506064846113059190612347565b93506064836113149190612347565b92506006829080600181540180825580915050600190039060005260206000200160009091909190915055600781908060018154018082558091505060019003906000526020600020016000909190919091505550506112c8565b61137984846115ee565b50505050505050565b60008073ffffffffffffffffffffffffffffffffffffffff168373ffffffffffffffffffffffffffffffffffffffff16036113bc57600080fd5b6113c68483610ef6565b6113cf57600080fd5b60008054905082106113e057600080fd5b8373ffffffffffffffffffffffffffffffffffffffff168573ffffffffffffffffffffffffffffffffffffffff161480611420575061141f8583610fb8565b5b8061143157506114308486610cf0565b5b9050949350505050565b611446848484611024565b61145284848484611a52565b61145b57600080fd5b50505050565b6000806040518060a001604052808581526020014267ffffffffffffffff1681526020018863ffffffff1681526020018763ffffffff1681526020018661ffff16815250905060008190806001815401808255809150506001900390600052602060002090600202016000909190919091506000820151816000015560208201518160010160006101000a81548167ffffffffffffffff021916908367ffffffffffffffff16021790555060408201518160010160086101000a81548163ffffffff021916908363ffffffff160217905550606082015181600101600c6101000a81548163ffffffff021916908363ffffffff16021790555060808201518160010160106101000a81548161ffff021916908361ffff1602179055505050600060016000805490506115939190612378565b90507f0a5311bd2a6608f08a180df2ee7c5946819a649b204b554bb8e39825b2c50ad584828a8a896040516115cc9594939291906123ac565b60405180910390a16115e060008583611024565b809250505095945050505050565b60008060ff426115fe9190612316565b9050600080600c9050600191505b61080082116116d65760008284161461166b5760096006828154811061163557611634612218565b5b906000526020600020015490806001815401808255809150506001900390600052602060002001600090919091909150556116b3565b60096007828154811061168157611680612218565b5b906000526020600020015490806001815401808255809150506001900390600052602060002001600090919091909150555b6001816116c09190612378565b90506002826116cf91906123ff565b915061160c565b600660016006805490506116ea9190612378565b815481106116fb576116fa612218565b5b9060005260206000200154600960008154811061171b5761171a612218565b5b906000526020600020015403611778576009600760008154811061174257611741612218565b5b906000526020600020015490806001815401808255809150506001900390600052602060002001600090919091909150556117c1565b6009600660008154811061178f5761178e612218565b5b906000526020600020015490806001815401808255809150506001900390600052602060002001600090919091909150555b600080600093505b600c84101561186e57600684101561181757600984815481106117ef576117ee612218565b5b9060005260206000200154826118059190612459565b915060648261181491906123ff565b91505b6006841061185b576009848154811061183357611832612218565b5b9060005260206000200154826118499190612459565b9150600a8261185891906123ff565b91505b838061186690612276565b9450506117c9565b6000878154811061188257611881612218565b5b906000526020600020906002020160010160109054906101000a900461ffff1661ffff16600089815481106118ba576118b9612218565b5b906000526020600020906002020160010160109054906101000a900461ffff1661ffff16111561192f576001600089815481106118fa576118f9612218565b5b906000526020600020906002020160010160109054906101000a900461ffff1661192491906124bd565b61ffff169050611a38565b6000878154811061194357611942612218565b5b906000526020600020906002020160010160109054906101000a900461ffff1661ffff166000898154811061197b5761197a612218565b5b906000526020600020906002020160010160109054906101000a900461ffff1661ffff1610156119f0576001600088815481106119bb576119ba612218565b5b906000526020600020906002020160010160109054906101000a900461ffff166119e591906124bd565b61ffff169050611a37565b600160008881548110611a0657611a05612218565b5b906000526020600020906002020160010160109054906101000a900461ffff16611a3091906124bd565b61ffff1690505b5b611a458789838533611461565b9550505050505092915050565b6000611a5d84611b5d565b611a6a5760019050611b55565b60008473ffffffffffffffffffffffffffffffffffffffff1663150b7a02338887876040518563ffffffff1660e01b8152600401611aab949392919061254a565b6020604051808303816000875af1158015611aca573d6000803e3d6000fd5b505050506040513d601f19601f82011682018060405250810190611aee91906125ab565b90507f150b7a023d4804d13e8c85fb27262cb750cf6ba9f9dd3bb30d90f482ceeb4b1f7bffffffffffffffffffffffffffffffffffffffffffffffffffffffff1916817bffffffffffffffffffffffffffffffffffffffffffffffffffffffff1916149150505b949350505050565b600080823b905060008163ffffffff1611915050919050565b5080546000825590600052602060002090810190611b949190611b97565b50565b5b80821115611bb0576000816000905550600101611b98565b5090565b6000604051905090565b600080fd5b600080fd5b60007fffffffff0000000000000000000000000000000000000000000000000000000082169050919050565b611bfd81611bc8565b8114611c0857600080fd5b50565b600081359050611c1a81611bf4565b92915050565b600060208284031215611c3657611c35611bbe565b5b6000611c4484828501611c0b565b91505092915050565b60008115159050919050565b611c6281611c4d565b82525050565b6000602082019050611c7d6000830184611c59565b92915050565b600081519050919050565b600082825260208201905092915050565b60005b83811015611cbd578082015181840152602081019050611ca2565b83811115611ccc576000848401525b50505050565b6000601f19601f8301169050919050565b6000611cee82611c83565b611cf88185611c8e565b9350611d08818560208601611c9f565b611d1181611cd2565b840191505092915050565b60006020820190508181036000830152611d368184611ce3565b905092915050565b6000819050919050565b611d5181611d3e565b8114611d5c57600080fd5b50565b600081359050611d6e81611d48565b92915050565b600060208284031215611d8a57611d89611bbe565b5b6000611d9884828501611d5f565b91505092915050565b600073ffffffffffffffffffffffffffffffffffffffff82169050919050565b6000611dcc82611da1565b9050919050565b611ddc81611dc1565b82525050565b6000602082019050611df76000830184611dd3565b92915050565b611e0681611dc1565b8114611e1157600080fd5b50565b600081359050611e2381611dfd565b92915050565b60008060408385031215611e4057611e3f611bbe565b5b6000611e4e85828601611e14565b9250506020611e5f85828601611d5f565b9150509250929050565b611e7281611d3e565b82525050565b6000602082019050611e8d6000830184611e69565b92915050565b600080600060608486031215611eac57611eab611bbe565b5b6000611eba86828701611e14565b9350506020611ecb86828701611e14565b9250506040611edc86828701611d5f565b9150509250925092565b600060208284031215611efc57611efb611bbe565b5b6000611f0a84828501611e14565b91505092915050565b611f1c81611c4d565b8114611f2757600080fd5b50565b600081359050611f3981611f13565b92915050565b60008060408385031215611f5657611f55611bbe565b5b6000611f6485828601611e14565b9250506020611f7585828601611f2a565b9150509250929050565b60008060408385031215611f9657611f95611bbe565b5b6000611fa485828601611d5f565b9250506020611fb585828601611d5f565b9150509250929050565b600080fd5b600080fd5b7f4e487b7100000000000000000000000000000000000000000000000000000000600052604160045260246000fd5b61200182611cd2565b810181811067ffffffffffffffff821117156120205761201f611fc9565b5b80604052505050565b6000612033611bb4565b905061203f8282611ff8565b919050565b600067ffffffffffffffff82111561205f5761205e611fc9565b5b61206882611cd2565b9050602081019050919050565b82818337600083830152505050565b600061209761209284612044565b612029565b9050828152602081018484840111156120b3576120b2611fc4565b5b6120be848285612075565b509392505050565b600082601f8301126120db576120da611fbf565b5b81356120eb848260208601612084565b91505092915050565b6000806000806080858703121561210e5761210d611bbe565b5b600061211c87828801611e14565b945050602061212d87828801611e14565b935050604061213e87828801611d5f565b925050606085013567ffffffffffffffff81111561215f5761215e611bc3565b5b61216b878288016120c6565b91505092959194509250565b6000806040838503121561218e5761218d611bbe565b5b600061219c85828601611e14565b92505060206121ad85828601611e14565b9150509250929050565b600060c0820190506121cc6000830189611e69565b6121d96020830188611e69565b6121e66040830187611e69565b6121f36060830186611e69565b6122006080830185611e69565b61220d60a0830184611dd3565b979650505050505050565b7f4e487b7100000000000000000000000000000000000000000000000000000000600052603260045260246000fd5b7f4e487b7100000000000000000000000000000000000000000000000000000000600052601160045260246000fd5b600061228182611d3e565b91507fffffffffffffffffffffffffffffffffffffffffffffffffffffffffffffffff82036122b3576122b2612247565b5b600182019050919050565b60006122c982611d3e565b9150600082036122dc576122db612247565b5b600182039050919050565b7f4e487b7100000000000000000000000000000000000000000000000000000000600052601260045260246000fd5b600061232182611d3e565b915061232c83611d3e565b92508261233c5761233b6122e7565b5b828206905092915050565b600061235282611d3e565b915061235d83611d3e565b92508261236d5761236c6122e7565b5b828204905092915050565b600061238382611d3e565b915061238e83611d3e565b9250828210156123a1576123a0612247565b5b828203905092915050565b600060a0820190506123c16000830188611dd3565b6123ce6020830187611e69565b6123db6040830186611e69565b6123e86060830185611e69565b6123f56080830184611e69565b9695505050505050565b600061240a82611d3e565b915061241583611d3e565b9250817fffffffffffffffffffffffffffffffffffffffffffffffffffffffffffffffff048311821515161561244e5761244d612247565b5b828202905092915050565b600061246482611d3e565b915061246f83611d3e565b9250827fffffffffffffffffffffffffffffffffffffffffffffffffffffffffffffffff038211156124a4576124a3612247565b5b828201905092915050565b600061ffff82169050919050565b60006124c8826124af565b91506124d3836124af565b92508261ffff038211156124ea576124e9612247565b5b828201905092915050565b600081519050919050565b600082825260208201905092915050565b600061251c826124f5565b6125268185612500565b9350612536818560208601611c9f565b61253f81611cd2565b840191505092915050565b600060808201905061255f6000830187611dd3565b61256c6020830186611dd3565b6125796040830185611e69565b818103606083015261258b8184612511565b905095945050505050565b6000815190506125a581611bf4565b92915050565b6000602082840312156125c1576125c0611bbe565b5b60006125cf84828501612596565b9150509291505056fea26469706673582212201dc8d01c689e08d52f1f4fe1e179051cf646d92dc580dae7f0449dd5717be97064736f6c634300080e0033",
  "immutableReferences": {},
  "source": "pragma solidity ^0.8.0;\n\nimport \"./IERC721.sol\";\nimport \"./ownable.sol\";\nimport \"./IERC721Receiver.sol\";\nimport \"../node_modules/@openzeppelin/contracts/utils/math/SafeMath.sol\";\n\ncontract kittyContract is IERC721, Ownable {\n\n    //using SafeMath for uint256;\n\n    uint256 public constant CREATION_LIMIT_GEN0 = 1000;\n    string public constant nameK = \"MarkKitties\";\n    string public constant symbolK = \"MKS\";\n    bytes4 internal constant MAGIC_ERC721 = bytes4(keccak256(\"onERC721Received(address,address,uint256,bytes)\"));\n    bytes4 private constant _Interface_ID_ERC721 = 0x80ac58cd;\n    bytes4 private constant _Interface_ID_ERC165 = 0x01ffc9a7; \n\n    event Birth(address owner, uint256 kittenId, uint256 mId, uint256 dId, uint256 genes);\n    \n    struct Kitty {\n        uint256 genes;\n        uint64 birthTime;\n        uint32 mumId;\n        uint32 dadId;\n        uint16 generation;\n    }\n\n    Kitty[] kitties;\n\nmapping(uint256 => address) public kittyIndexToOwner;  \nmapping(address => uint256) ownershipTokenCount;\n\nmapping(uint256 => address) kittyIndexToApproved;\nmapping(address => mapping(address => bool)) private _operatorApprovals;\n\nuint256 public gen0Counter = 0;\n\nconstructor() public{\n    _createKitty(0, 0, 0, 0, address(0));\n}\n\nuint256[] digitsMom;\nuint256[] digitsDad;\nuint256[] digitsw;\nuint256[] finalD;\n\nfunction supportsInterface(bytes4 _interfaceId) external view returns (bool){\n    return (_interfaceId == _Interface_ID_ERC721 || _interfaceId == _Interface_ID_ERC165);\n}\n\nfunction getZero()public view returns (address){\n    return address(0);\n}\n\nfunction getContractAddress() public view returns (address){\n    return address(this);\n}\n\nfunction createKittyGenZero(uint256 _genes)  public returns (uint256){\n    require(gen0Counter < CREATION_LIMIT_GEN0);\n    gen0Counter++;\n\n    return _createKitty(0, 0, 0, _genes, msg.sender);\n    \n}\n\n\n\nfunction _createKitty(uint256 _mId, uint256 _dId, uint256 _gen, uint256 _genes, address _owner) internal returns (uint256){\n    Kitty memory _kitty = Kitty({genes: _genes, birthTime: uint64(block.timestamp), mumId: uint32(_mId), dadId: uint32(_dId), generation: uint16(_gen)});\n    kitties.push(_kitty);\n\n    uint256 newKittenId = kitties.length - 1;\n    emit Birth(_owner, newKittenId, _mId, _dId, _genes);\n    _transfer(address(0), _owner, newKittenId);\n\n    return newKittenId;\n}\n\nfunction getKitty(uint256 kId) public view returns \n(uint256 genes,\nuint256 birthTime,\nuint256 mumId,\nuint256 dadId,\nuint256 generation,\naddress owner)\n                {\n                    \n                    birthTime = uint256(kitties[kId].birthTime);\n                    mumId = uint256(kitties[kId].mumId);\n                    dadId = uint256(kitties[kId].dadId);\n                    generation = uint256(kitties[kId].generation);\n                    owner = kittyIndexToOwner[kId];\n                    genes = uint256(kitties[kId].genes);\n                }\n\nfunction balanceOf(address owner) external view returns (uint256 balance){\n    return ownershipTokenCount[owner];\n}\n\nfunction totalSupply() external view returns (uint256 total){\n    return kitties.length;\n}\n\nfunction name() external view returns (string memory tokenName){\n    return nameK;\n}\n\nfunction symbol() external view returns (string memory tokenSymbol){\n    return symbolK;\n}\n\nfunction ownerOf(uint256 tokenId) external view returns (address owner){\n    return kittyIndexToOwner[tokenId];\n}\n\nfunction _owns(address _claimant, uint256 _tokenId) internal view returns (bool){\n    return kittyIndexToOwner[_tokenId] == _claimant;\n}\n\nfunction transfer(address _to, uint256 _tokenId) external{\n    require(_to != address(0));\n    require(_to != address(this));\n    require(_owns(msg.sender, _tokenId));\n\n   _transfer(msg.sender, _to, _tokenId);\n}\n\nfunction _transfer(address _from, address _to, uint256 _tokenId) internal {\n    \n    ownershipTokenCount[_to]++;\n    kittyIndexToOwner[_tokenId] = _to;\n\n    if (_from != address(0)) {\n        ownershipTokenCount[_from]--;\n        delete kittyIndexToApproved[_tokenId];\n    }\n\n    emit Transfer(_from, _to, _tokenId);\n\n}\n\nfunction _safeTransfer(address _from, address _to, uint256 _tokenId, bytes memory _data) internal {\n        _transfer(_from, _to, _tokenId);\n        require(_checkERC721Support(_from, _to, _tokenId, _data));\n}\n\nfunction approve(address _approved, uint256 _tokenId) external {\n    require(_owns(msg.sender, _tokenId));\n\n    _approve(_approved, _tokenId);\n    emit Approval(msg.sender, _approved, _tokenId);\n}\n\nfunction _approve(address _approved, uint256 _tokenId) internal {\n    kittyIndexToApproved[_tokenId] = _approved;\n}\n\nfunction setApprovalForAll(address _operator, bool _approved) external{\n    //require(ownershipTokenCount[msg.sender] > 0);\n    require(_operator != msg.sender);\n\n    _operatorApprovals[msg.sender][_operator] = _approved;\n    emit ApprovalForAll(msg.sender, _operator, _approved);\n\n}\n\nfunction getApproved(uint256 _tokenId) external view returns (address){\n    require(_tokenId < kitties.length);\n    return kittyIndexToApproved[_tokenId];\n}\n\nfunction isApprovedForAll(address _owner, address _operator) public view returns (bool){\n    return _operatorApprovals[_owner][_operator];\n}\n\nfunction transferFrom(address _from, address _to, uint256 _tokenId) external{\n    require(_owns(_from, _tokenId) == true);\n    require(_approvedFor(_to, _tokenId) == true || isApprovedForAll(_from, msg.sender) == true || kittyIndexToOwner[_tokenId] == msg.sender);\n    \n    require(_to != address(0) && _to != kittyIndexToOwner[_tokenId]);\n    require(_tokenId < kitties.length);\n\n    _transfer(_from, _to, _tokenId);\n}\n\nfunction _approvedFor(address _claimant, uint256 _tokenId) internal view returns (bool){\n    return kittyIndexToApproved[_tokenId] == _claimant;\n}\n\n\nfunction _checkERC721Support(address _from, address _to, uint256 _tokenId, bytes memory _data) internal returns (bool){\n    if (!_isContract(_to)){\n        return true;\n    }\n\n    bytes4 returnData = IERC721Receiver(_to).onERC721Received(msg.sender, _from, _tokenId, _data);\n\n    //onERC721Received\n    return returnData == MAGIC_ERC721;\n}\n\nfunction _isContract(address _to) internal view returns (bool){\n    uint32 size;\n    assembly{\n        size := extcodesize(_to)\n    }\n    return size > 0;\n}\n\nfunction safeTransferFrom(address _from, address _to, uint256 _tokenId) public {\n    safeTransferFrom(_from, _to, _tokenId, \"\");\n}\n\nfunction safeTransferFrom(address _from, address _to, uint256 _tokenId, bytes memory data) public {\n    require(_isApprovedOrOwner(msg.sender, _from, _to, _tokenId));\n    \n    _safeTransfer(_from, _to, _tokenId, data);\n}\n\n\n\nfunction _isApprovedOrOwner(address _spender, address _from, address _to, uint256 _tokenId) internal view returns (bool){\n    require(_to != address(0));\n    require(_owns(_from, _tokenId));\n    require(_tokenId < kitties.length);\n\n    return (_spender == _from || _approvedFor(_spender, _tokenId) || isApprovedForAll(_from, _spender));\n}\n\n\n\n\n   function _generateDigits(uint256 _dad, uint256 _mom, uint256 dadId, uint256 momId) internal {\n        delete digitsMom;\n        delete digitsDad;\n        delete finalD;\n        uint256 numberMom = _mom;\n        uint256 numberDad = _dad;\n        \n        while (digitsDad.length < 6) {\n            uint256 digitM = uint256(numberMom % 10);\n            uint256 digitD = uint256(numberDad % 10);\n            numberMom = numberMom / 10;\n            numberDad = numberDad / 10;\n            digitsMom.push(digitM);\n            digitsDad.push(digitD);\n        }\n        while (digitsDad.length < 13) {\n            uint256 digitM = uint256(numberMom % 100);\n            uint256 digitD = uint256(numberDad % 100);\n            numberMom = numberMom / 100;\n            numberDad = numberDad / 100;\n            digitsMom.push(digitM);\n            digitsDad.push(digitD);\n        }\n        \n        _mixDNA(dadId, momId);\n        \n    }\n\n    \n    \n\n    function _mixDNA(uint256 dadId, uint256 momId) internal returns (uint256) {\n        \n        uint256 random = uint256(block.timestamp % 255);\n        uint256 i;\n        uint256 index = 12;\n        \n        \n        \n        for (i = 1; i <= 2048; i = i*2) {\n            if (random & i != 0) {\n                finalD.push(digitsMom[index]);\n            } else {\n                finalD.push(digitsDad[index]);\n            }\n            index = index - 1;\n            \n        }\n        if (finalD[0] == digitsMom[digitsMom.length - 1]){\n            finalD.push(digitsDad[0]);\n        } else {\n            finalD.push(digitsMom[0]);\n        }\n            uint256 newGene;\n            uint256 newGeneration;\n        \n                for (i = 0; i < 12; i++){\n                    if (i < 6){\n                        newGene = newGene + finalD[i];\n                        newGene = newGene * 100;\n                    } if (i >= 6){\n                        newGene = newGene + finalD[i];\n                        newGene = newGene * 10;\n                    }\n                    \n                }\n\n                if (kitties[dadId].generation > kitties[momId].generation){\n                    newGeneration = kitties[dadId].generation + 1;\n                } else if  (kitties[dadId].generation < kitties[momId].generation){\n                    newGeneration = kitties[momId].generation + 1;\n                } else {\n                    newGeneration = kitties[momId].generation + 1;\n                }\n\n                return _createKitty(momId, dadId, newGeneration, newGene, msg.sender);\n                \n        }\n    \nfunction breedKitty(uint256 _cat1, uint256 _cat2) public {\n    require(kittyIndexToOwner[_cat1] == msg.sender && kittyIndexToOwner[_cat2] == msg.sender);\n    require(_cat1 != _cat2);\n    uint256 dadGenes = kitties[_cat1].genes;\n    uint256 momGenes = kitties[_cat2].genes;\n    \n    return _generateDigits(dadGenes, momGenes, _cat1, _cat2);\n}\n\n\n}",
  "sourcePath": "/Users/markkrasner/kitties/academy-kitties-template/contracts/kittyContract.sol",
  "compiler": {
    "name": "solc",
    "version": "0.8.14+commit.80d49f37.Emscripten.clang"
  },
  "schemaVersion": "3.4.7",
  "updatedAt": "2022-05-22T19:36:53.278Z",
  "networkType": "ethereum",
  "devdoc": {
    "kind": "dev",
    "methods": {
      "approve(address,uint256)": {
        "details": "The zero address indicates there is no approved address.  Throws unless `msg.sender` is the current NFT owner, or an authorized  operator of the current owner.",
        "params": {
          "_approved": "The new approved NFT controller",
          "_tokenId": "The NFT to approve"
        }
      },
      "balanceOf(address)": {
        "details": "Returns the number of tokens in ``owner``'s account."
      },
      "getApproved(uint256)": {
        "details": "Throws if `_tokenId` is not a valid NFT.",
        "params": {
          "_tokenId": "The NFT to find the approved address for"
        },
        "returns": {
          "_0": "The approved address for this NFT, or the zero address if there is none"
        }
      },
      "isApprovedForAll(address,address)": {
        "params": {
          "_operator": "The address that acts on behalf of the owner",
          "_owner": "The address that owns the NFTs"
        },
        "returns": {
          "_0": "True if `_operator` is an approved operator for `_owner`, false otherwise"
        }
      },
      "ownerOf(uint256)": {
        "details": "Returns the owner of the `tokenId` token. Requirements: - `tokenId` must exist."
      },
      "safeTransferFrom(address,address,uint256)": {
        "details": "This works identically to the other function with an extra data parameter,  except this function just sets data to \"\".",
        "params": {
          "_from": "The current owner of the NFT",
          "_to": "The new owner",
          "_tokenId": "The NFT to transfer"
        }
      },
      "safeTransferFrom(address,address,uint256,bytes)": {
        "details": "Throws unless `msg.sender` is the current owner, an authorized  operator, or the approved address for this NFT. Throws if `_from` is  not the current owner. Throws if `_to` is the zero address. Throws if  `_tokenId` is not a valid NFT. When transfer is complete, this function  checks if `_to` is a smart contract (code size > 0). If so, it calls  `onERC721Received` on `_to` and throws if the return value is not  `bytes4(keccak256(\"onERC721Received(address,address,uint256,bytes)\"))`.",
        "params": {
          "_from": "The current owner of the NFT",
          "_to": "The new owner",
          "_tokenId": "The NFT to transfer",
          "data": "Additional data with no specified format, sent in call to `_to`"
        }
      },
      "setApprovalForAll(address,bool)": {
        "details": "Emits the ApprovalForAll event. The contract MUST allow  multiple operators per owner.",
        "params": {
          "_approved": "True if the operator is approved, false to revoke approval",
          "_operator": "Address to add to the set of authorized operators"
        }
      },
      "transferFrom(address,address,uint256)": {
        "details": "Throws unless `msg.sender` is the current owner, an authorized  operator, or the approved address for this NFT. Throws if `_from` is  not the current owner. Throws if `_to` is the zero address. Throws if  `_tokenId` is not a valid NFT.",
        "params": {
          "_from": "The current owner of the NFT",
          "_to": "The new owner",
          "_tokenId": "The NFT to transfer"
        }
      }
    },
    "version": 1
  },
  "userdoc": {
    "kind": "user",
    "methods": {
      "approve(address,uint256)": {
        "notice": "Change or reaffirm the approved address for an NFT"
      },
      "getApproved(uint256)": {
        "notice": "Get the approved address for a single NFT"
      },
      "isApprovedForAll(address,address)": {
        "notice": "Query if an address is an authorized operator for another address"
      },
      "safeTransferFrom(address,address,uint256)": {
        "notice": "Transfers the ownership of an NFT from one address to another address"
      },
      "safeTransferFrom(address,address,uint256,bytes)": {
        "notice": "Transfers the ownership of an NFT from one address to another address"
      },
      "setApprovalForAll(address,bool)": {
        "notice": "Enable or disable approval for a third party (\"operator\") to manage  all of `msg.sender`'s assets"
      },
      "transferFrom(address,address,uint256)": {
        "notice": "Transfer ownership of an NFT -- THE CALLER IS RESPONSIBLE  TO CONFIRM THAT `_to` IS CAPABLE OF RECEIVING NFTS OR ELSE  THEY MAY BE PERMANENTLY LOST"
      }
    },
    "version": 1
  }
}